:100000000C9450000C946D000C946D000C946D00D9
:100010000C946D000C946D000C946D000C946D00AC
:100020000C946D000C946D000C946D000C946D009C
:100030000C946D000C946D000C946D000C946D008C
:100040000C946D000C946D000C946D000C946D007C
:100050000C946D000C946D000C946D000C946D006C
:100060000C946D000C946D000C946D000C946D005C
:100070000C946D000C946D000C946D000C946D004C
:100080000C946D000C946D000C946D000C946D003C
:100090000C94EC000C946D000C946D000C946D00AD
:1000A00011241FBECFEFCDBFDFE3DEBF18E2A0E01B
:1000B000B8E2EAE7F4E002C005900D92A430B1077F
:1000C000D9F728E2A4E0B8E201C01D92A631B20738
:1000D000E1F70E9450010C943B020C94000080E276
:1000E0008093A10408959C019091910A9F7E909322
:1000F000910A8091A00485FF09C080E2232B19F4A6
:100100008093A60408958093A50408959FB7F8945A
:100110008091B504232B29F4877F8093B5049FBF7A
:1001200008958860FACFCF93DF938FB7F89420912A
:100130001228309113284091142850911528E091ED
:10014000BA0A9091B60A90FF06C02F5F3F4F4F4FFB
:100150005F4FE091BA0A8FBFA0911028B09111288B
:10016000C0910E28D0910F280E942102EC9F90018F
:10017000ED9F300D1124620F731F811D911DDF91C2
:10018000CF910895CF92DF92EF92FF920E94930059
:100190006B017C0120E4C20E22E4D21E2FE0E21E9D
:1001A000F11C80E4C81682E4D8068FE0E806F1046A
:1001B00038F40E949300C616D706E806F906C8F37D
:1001C0000E9493006C157D058E059F05C8F3FF9076
:1001D000EF90DF90CF9008951F920F920FB60F927D
:1001E00011242F933F934F935F936F937F938F933C
:1001F0009F93AF93BF9340910A2850910B28609131
:100200000C2870910D288091082890910928209140
:10021000062830910728420F531F611D711D209140
:10022000042830910528820F931F883E23E092070F
:1002300030F0885E93404F5F5F4F6F4F7F4F8093EA
:1002400008289093092840930A2850930B2860931C
:100250000C2870930D288091122890911328A0915A
:100260001428B09115280196A11DB11D8093122864
:1002700090931328A0931428B093152881E08093BD
:10028000B60ABF91AF919F918F917F916F915F91CE
:100290004F913F912F910F900FBE0F901F90189587
:1002A00088ED90E084BF9093610080E094E2A4EF39
:1002B000B0E08093002890930128A0930228B09387
:1002C00003288091020686608093020680910006D2
:1002D000816080930006809102068F7C80930206E5
:1002E0008091A0008F788093A000809102068061A9
:1002F000809302061092E20581E08093E40583E09A
:100300008093010A8FEF90E08093260A9093270A4A
:1003100080E890E08093380A9093390A80933A0AF3
:1003200090933B0A80933C0A90933D0A8BE0809324
:10033000000A8091E50581608093E5058091E505DF
:1003400082608093E505E0E8FAE037E02FEF90E87F
:1003500085E031832487958780837096E03C4AE06E
:10036000F407B9F780E094E0809310289093112867
:1003700080911028909111282FEF30E0B9010E9450
:100380000D0260930E2870930F2880911028909191
:100390001128E8EEF3E0BF010E940D0260930628E9
:1003A000709307288091102890911128BF010E9416
:1003B0000D0280930428909305282093BC0A309363
:1003C000BD0A8091B50A81608093B50A84E080936C
:1003D000B00A8091B00A81608093B00A78940E943C
:1003E0006F00CFEF00E010E00E946F0090E080E02F
:1003F0000E9473000E94C2000E946F00C0939D0A79
:100400008091910A80618093910A0E94C200011537
:10041000110551F30E940000E7CFAA1BBB1B51E15D
:1004200007C0AA1FBB1FA617B70710F0A61BB70B64
:10043000881F991F5A95A9F780959095BC01CD0109
:1004400008950E942C02A59F900DB49F900DA49F2B
:10045000800D911D11240895A29FB001B39FC0018A
:10046000A39F700D811D1124911DB29F700D811DE0
:0A0470001124911D0895F894FFCFA8
:04047A000024F40066
:00000001FF