:020000040000FA
:20400000FFCFFECFFDCFFCCFFBCFFACFF9CFF8CFF7CFF6CFF5CFF4CFF3CFF2CFF1CFF0CF38
:20402000EFCFEECFEDCFECCFEBCFEACFE9CFE8CFE7CFE6CFE5CFE4CFE3CFE2CFE1CFE0CF18
:20404000DFCFDECFDDCFDCCFDBCFDACFD9CFD8CFD7CFD6CFD5CFD4CFD3CFD2CFD1CFD0CFF8
:20406000CFCFCECFCDCFCCCFCBCFCACFC9CFC8CFC7CFC6CFC5CFC4CFC3CFC2CFC1CFC0CFD8
:20408000BFCFBECFBDCFBCCFBBCFBACFB9CFB8CFB7CFB6CFB5CFB4CFB3CFB2CFB1CFB0CFB8
:2040A000AFCFAECFADCFACCFABCFAACFA9CFA8CFA7CFA6CFA5CFA4CFA3CFA2CFA1CFA0CF98
:2040C0009FCF9ECF9DCF9CCF9BCF9ACF99CF98CF97CF96CF95CF94CF93CF92CF91CF90CF78
:2040E0008FCF8ECF8DCF8CCF8BCF8ACF89CF88CF87CF86CF85CF84CF83CF82CF81CF80CF58
:204100007FCF7ECF7DCF7CCF7BCF7ACF79CF78CF77CF76CF75CF74CF73CF72CF71CF70CF37
:204120006FCF6ECF6DCF6CCF6BCF6ACF69CF68CF67CF66CF65CF64CF63CF62CF61CF60CF17
:204140005FCF5ECF5DCF5CCF5BCF5ACF59CF58CF57CF56CF55CF54CF53CF52CF51CF50CFF7
:204160004FCF4ECF4DCF4CCF4BCF4ACF49CF48CF47CF46CF45CF44CF43CF42CF41CF40CFD7
:204180003FCF3ECF3DCF3CCF3BCF3ACF39CF38CF37CF36CF35CF34CF33CF32CF31CF30CFB7
:2041A0002FCF2ECF2DCF2CCF2BCF2ACF29CF28CF27CF26CF25CF24CF23CF22CF21CF20CF97
:2041C0001FCF1ECF1DCF1CCF1BCF1ACF19CF18CF17CF16CF15CF14CF13CF12CF11CF10CF77
:2041E0000FCF0ECF0DCF0CCF0BCF0ACF09CF08CF07CF06CF05CF04CF03CF02CF01CF00CF57
:20420000FFCFFECFFDCFFCCFFBCFFACFF9CFF8CFF7CFF6CFF5CFF4CFF3CFF2CFF1CFF0CF36
:20422000EFCFEECFEDCFECCFEBCFEACFE9CFE8CFE7CFE6CFE5CFE4CFE3CFE2CFE1CFE0CF16
:20424000DFCFDECFDDCFDCCFDBCFDACFD9CFD8CFD7CFD6CFD5CFD4CFD3CFD2CFD1CFD0CFF6
:20426000CFCFCECFCDCFCCCFCBCFCACFC9CFC8CFC7CFC6CFC5CFC4CFC3CFC2CFC1CFC0CFD6
:20428000BFCFBECFBDCFBCCFBBCFBACFB9CFB8CFB7CFB6CFB5CFB4CFB3CFB2CFB1CFB0CFB6
:2042A000AFCFAECFADCFACCFABCFAACFA9CFA8CFA7CFA6CFA5CFA4CFA3CFA2CFA1CFA0CF96
:2042C0009FCF9ECF9DCF9CCF9BCF9ACF99CF98CF97CF96CF95CF94CF93CF92CF91CF90CF76
:2042E0008FCF8ECF8DCF8CCF8BCF8ACF89CF88CF87CF86CF85CF84CF83CF82CF81CF80CF56
:204300007FCF7ECF7DCF7CCF7BCF7ACF79CF78CF77CF76CF75CF74CF73CF72CF71CF70CF35
:204320006FCF6ECF6DCF6CCF6BCF6ACF69CF68CF67CF66CF65CF64CF63CF62CF61CF60CF15
:204340005FCF5ECF5DCF5CCF5BCF5ACF59CF58CF57CF56CF55CF54CF53CF52CF51CF50CFF5
:204360004FCF4ECF4DCF4CCF4BCF4ACF49CF48CF47CF46CF45CF44CF43CF42CF41CF40CFD5
:204380003FCF3ECF3DCF3CCF3BCF3ACF39CF38CF37CF36CF35CF34CF33CF32CF31CF30CFB5
:2043A0002FCF2ECF2DCF2CCF2BCF2ACF29CF28CF27CF26CF25CF24CF23CF22CF21CF20CF95
:2043C0001FCF1ECF1DCF1CCF1BCF1ACF19CF18CF17CF16CF15CF14CF13CF12CF11CF10CF75
:2043E0000FCF0ECF0DCF0CCF0BCF0ACF09CF08CF07CF06CF05CF04CF03CF02CF01CF00CF55
:20440000FFCFFECFFDCFFCCFFBCFFACFF9CFF8CFF7CFF6CFF5CFF4CFF3CFF2CFF1CFF0CF34
:20442000EFCFEECFEDCFECCFEBCFEACFE9CFE8CFE7CFE6CFE5CFE4CFE3CFE2CFE1CFE0CF14
:20444000DFCFDECFDDCFDCCFDBCFDACFD9CFD8CFD7CFD6CFD5CFD4CFD3CFD2CFD1CFD0CFF4
:20446000CFCFCECFCDCFCCCFCBCFCACFC9CFC8CFC7CFC6CFC5CFC4CFC3CFC2CFC1CFC0CFD4
:20448000BFCFBECFBDCFBCCFBBCFBACFB9CFB8CFB7CFB6CFB5CFB4CFB3CFB2CFB1CFB0CFB4
:2044A000AFCFAECFADCFACCFABCFAACFA9CFA8CFA7CFA6CFA5CFA4CFA3CFA2CFA1CFA0CF94
:2044C0009FCF9ECF9DCF9CCF9BCF9ACF99CF98CF97CF96CF95CF94CF93CF92CF91CF90CF74
:2044E0008FCF8ECF8DCF8CCF8BCF8ACF89CF88CF87CF86CF85CF84CF83CF82CF81CF80CF54
:204500007FCF7ECF7DCF7CCF7BCF7ACF79CF78CF77CF76CF75CF74CF73CF72CF71CF70CF33
:204520006FCF6ECF6DCF6CCF6BCF6ACF69CF68CF67CF66CF65CF64CF63CF62CF61CF60CF13
:204540005FCF5ECF5DCF5CCF5BCF5ACF59CF58CF57CF56CF55CF54CF53CF52CF51CF50CFF3
:204560004FCF4ECF4DCF4CCF4BCF4ACF49CF48CF47CF46CF45CF44CF43CF42CF41CF40CFD3
:204580003FCF3ECF3DCF3CCF3BCF3ACF39CF38CF37CF36CF35CF34CF33CF32CF31CF30CFB3
:2045A0002FCF2ECF2DCF2CCF2BCF2ACF29CF28CF27CF26CF25CF24CF23CF22CF21CF20CF93
:2045C0001FCF1ECF1DCF1CCF1BCF1ACF19CF18CF17CF16CF15CF14CF13CF12CF11CF10CF73
:2045E0000FCF0ECF0DCF0CCF0BCF0ACF09CF08CF07CF06CF05CF04CF03CF02CF01CF00CF53
:20460000FFCFFECFFDCFFCCFFBCFFACFF9CFF8CFF7CFF6CFF5CFF4CFF3CFF2CFF1CFF0CF32
:20462000EFCFEECFEDCFECCFEBCFEACFE9CFE8CFE7CFE6CFE5CFE4CFE3CFE2CFE1CFE0CF12
:20464000DFCFDECFDDCFDCCFDBCFDACFD9CFD8CFD7CFD6CFD5CFD4CFD3CFD2CFD1CFD0CFF2
:20466000CFCFCECFCDCFCCCFCBCFCACFC9CFC8CFC7CFC6CFC5CFC4CFC3CFC2CFC1CFC0CFD2
:20468000BFCFBECFBDCFBCCFBBCFBACFB9CFB8CFB7CFB6CFB5CFB4CFB3CFB2CFB1CFB0CFB2
:2046A000AFCFAECFADCFACCFABCFAACFA9CFA8CFA7CFA6CFA5CFA4CFA3CFA2CFA1CFA0CF92
:2046C0009FCF9ECF9DCF9CCF9BCF9ACF99CF98CF97CF96CF95CF94CF93CF92CF91CF90CF72
:2046E0008FCF8ECF8DCF8CCF8BCF8ACF89CF88CF87CF86CF85CF84CF83CF82CF81CF80CF52
:204700007FCF7ECF7DCF7CCF7BCF7ACF79CF78CF77CF76CF75CF74CF73CF72CF71CF70CF31
:204720006FCF6ECF6DCF6CCF6BCF6ACF69CF68CF67CF66CF65CF64CF63CF62CF61CF60CF11
:204740005FCF5ECF5DCF5CCF5BCF5ACF59CF58CF57CF56CF55CF54CF53CF52CF51CF50CFF1
:204760004FCF4ECF4DCF4CCF4BCF4ACF49CF48CF47CF46CF45CF44CF43CF42CF41CF40CFD1
:204780003FCF3ECF3DCF3CCF3BCF3ACF39CF38CF37CF36CF35CF34CF33CF32CF31CF30CFB1
:2047A0002FCF2ECF2DCF2CCF2BCF2ACF29CF28CF27CF26CF25CF24CF23CF22CF21CF20CF91
:2047C0001FCF1ECF1DCF1CCF1BCF1ACF19CF18CF17CF16CF15CF14CF13CF12CF11CF10CF71
:2047E0000FCF0ECF0DCF0CCF0BCF0ACF09CF08CF07CF06CF05CF04CF03CF02CF01CF00CF51
:20480000FFCFFECFFDCFFCCFFBCFFACFF9CFF8CFF7CFF6CFF5CFF4CFF3CFF2CFF1CFF0CF30
:20482000EFCFEECFEDCFECCFEBCFEACFE9CFE8CFE7CFE6CFE5CFE4CFE3CFE2CFE1CFE0CF10
:20484000DFCFDECFDDCFDCCFDBCFDACFD9CFD8CFD7CFD6CFD5CFD4CFD3CFD2CFD1CFD0CFF0
:20486000CFCFCECFCDCFCCCFCBCFCACFC9CFC8CFC7CFC6CFC5CFC4CFC3CFC2CFC1CFC0CFD0
:20488000BFCFBECFBDCFBCCFBBCFBACFB9CFB8CFB7CFB6CFB5CFB4CFB3CFB2CFB1CFB0CFB0
:2048A000AFCFAECFADCFACCFABCFAACFA9CFA8CFA7CFA6CFA5CFA4CFA3CFA2CFA1CFA0CF90
:2048C0009FCF9ECF9DCF9CCF9BCF9ACF99CF98CF97CF96CF95CF94CF93CF92CF91CF90CF70
:2048E0008FCF8ECF8DCF8CCF8BCF8ACF89CF88CF87CF86CF85CF84CF83CF82CF81CF80CF50
:204900007FCF7ECF7DCF7CCF7BCF7ACF79CF78CF77CF76CF75CF74CF73CF72CF71CF70CF2F
:204920006FCF6ECF6DCF6CCF6BCF6ACF69CF68CF67CF66CF65CF64CF63CF62CF61CF60CF0F
:204940005FCF5ECF5DCF5CCF5BCF5ACF59CF58CF57CF56CF55CF54CF53CF52CF51CF50CFEF
:204960004FCF4ECF4DCF4CCF4BCF4ACF49CF48CF47CF46CF45CF44CF43CF42CF41CF40CFCF
:204980003FCF3ECF3DCF3CCF3BCF3ACF39CF38CF37CF36CF35CF34CF33CF32CF31CF30CFAF
:2049A0002FCF2ECF2DCF2CCF2BCF2ACF29CF28CF27CF26CF25CF24CF23CF22CF21CF20CF8F
:2049C0001FCF1ECF1DCF1CCF1BCF1ACF19CF18CF17CF16CF15CF14CF13CF12CF11CF10CF6F
:2049E0000FCF0ECF0DCF0CCF0BCF0ACF09CF08CF07CF06CF05CF04CF03CF02CF01CF00CF4F
:204A0000FFCFFECFFDCFFCCFFBCFFACFF9CFF8CFF7CFF6CFF5CFF4CFF3CFF2CFF1CFF0CF2E
:204A2000EFCFEECFEDCFECCFEBCFEACFE9CFE8CFE7CFE6CFE5CFE4CFE3CFE2CFE1CFE0CF0E
:204A4000DFCFDECFDDCFDCCFDBCFDACFD9CFD8CFD7CFD6CFD5CFD4CFD3CFD2CFD1CFD0CFEE
:204A6000CFCFCECFCDCFCCCFCBCFCACFC9CFC8CFC7CFC6CFC5CFC4CFC3CFC2CFC1CFC0CFCE
:204A8000BFCFBECFBDCFBCCFBBCFBACFB9CFB8CFB7CFB6CFB5CFB4CFB3CFB2CFB1CFB0CFAE
:204AA000AFCFAECFADCFACCFABCFAACFA9CFA8CFA7CFA6CFA5CFA4CFA3CFA2CFA1CFA0CF8E
:204AC0009FCF9ECF9DCF9CCF9BCF9ACF99CF98CF97CF96CF95CF94CF93CF92CF91CF90CF6E
:204AE0008FCF8ECF8DCF8CCF8BCF8ACF89CF88CF87CF86CF85CF84CF83CF82CF81CF80CF4E
:204B00007FCF7ECF7DCF7CCF7BCF7ACF79CF78CF77CF76CF75CF74CF73CF72CF71CF70CF2D
:204B20006FCF6ECF6DCF6CCF6BCF6ACF69CF68CF67CF66CF65CF64CF63CF62CF61CF60CF0D
:204B40005FCF5ECF5DCF5CCF5BCF5ACF59CF58CF57CF56CF55CF54CF53CF52CF51CF50CFED
:204B60004FCF4ECF4DCF4CCF4BCF4ACF49CF48CF47CF46CF45CF44CF43CF42CF41CF40CFCD
:204B80003FCF3ECF3DCF3CCF3BCF3ACF39CF38CF37CF36CF35CF34CF33CF32CF31CF30CFAD
:204BA0002FCF2ECF2DCF2CCF2BCF2ACF29CF28CF27CF26CF25CF24CF23CF22CF21CF20CF8D
:204BC0001FCF1ECF1DCF1CCF1BCF1ACF19CF18CF17CF16CF15CF14CF13CF12CF11CF10CF6D
:204BE0000FCF0ECF0DCF0CCF0BCF0ACF09CF08CF07CF06CF05CF04CF03CF02CF01CF00CF4D
:204C0000FFCFFECFFDCFFCCFFBCFFACFF9CFF8CFF7CFF6CFF5CFF4CFF3CFF2CFF1CFF0CF2C
:204C2000EFCFEECFEDCFECCFEBCFEACFE9CFE8CFE7CFE6CFE5CFE4CFE3CFE2CFE1CFE0CF0C
:204C4000DFCFDECFDDCFDCCFDBCFDACFD9CFD8CFD7CFD6CFD5CFD4CFD3CFD2CFD1CFD0CFEC
:204C6000CFCFCECFCDCFCCCFCBCFCACFC9CFC8CFC7CFC6CFC5CFC4CFC3CFC2CFC1CFC0CFCC
:204C8000BFCFBECFBDCFBCCFBBCFBACFB9CFB8CFB7CFB6CFB5CFB4CFB3CFB2CFB1CFB0CFAC
:204CA000AFCFAECFADCFACCFABCFAACFA9CFA8CFA7CFA6CFA5CFA4CFA3CFA2CFA1CFA0CF8C
:204CC0009FCF9ECF9DCF9CCF9BCF9ACF99CF98CF97CF96CF95CF94CF93CF92CF91CF90CF6C
:204CE0008FCF8ECF8DCF8CCF8BCF8ACF89CF88CF87CF86CF85CF84CF83CF82CF81CF80CF4C
:204D00007FCF7ECF7DCF7CCF7BCF7ACF79CF78CF77CF76CF75CF74CF73CF72CF71CF70CF2B
:204D20006FCF6ECF6DCF6CCF6BCF6ACF69CF68CF67CF66CF65CF64CF63CF62CF61CF60CF0B
:204D40005FCF5ECF5DCF5CCF5BCF5ACF59CF58CF57CF56CF55CF54CF53CF52CF51CF50CFEB
:204D60004FCF4ECF4DCF4CCF4BCF4ACF49CF48CF47CF46CF45CF44CF43CF42CF41CF40CFCB
:204D80003FCF3ECF3DCF3CCF3BCF3ACF39CF38CF37CF36CF35CF34CF33CF32CF31CF30CFAB
:204DA0002FCF2ECF2DCF2CCF2BCF2ACF29CF28CF27CF26CF25CF24CF23CF22CF21CF20CF8B
:204DC0001FCF1ECF1DCF1CCF1BCF1ACF19CF18CF17CF16CF15CF14CF13CF12CF11CF10CF6B
:204DE0000FCF0ECF0DCF0CCF0BCF0ACF09CF08CF07CF06CF05CF04CF03CF02CF01CF00CF4B
:204E0000FFCFFECFFDCFFCCFFBCFFACFF9CFF8CFF7CFF6CFF5CFF4CFF3CFF2CFF1CFF0CF2A
:204E2000EFCFEECFEDCFECCFEBCFEACFE9CFE8CFE7CFE6CFE5CFE4CFE3CFE2CFE1CFE0CF0A
:204E4000DFCFDECFDDCFDCCFDBCFDACFD9CFD8CFD7CFD6CFD5CFD4CFD3CFD2CFD1CFD0CFEA
:204E6000CFCFCECFCDCFCCCFCBCFCACFC9CFC8CFC7CFC6CFC5CFC4CFC3CFC2CFC1CFC0CFCA
:204E8000BFCFBECFBDCFBCCFBBCFBACFB9CFB8CFB7CFB6CFB5CFB4CFB3CFB2CFB1CFB0CFAA
:204EA000AFCFAECFADCFACCFABCFAACFA9CFA8CFA7CFA6CFA5CFA4CFA3CFA2CFA1CFA0CF8A
:204EC0009FCF9ECF9DCF9CCF9BCF9ACF99CF98CF97CF96CF95CF94CF93CF92CF91CF90CF6A
:204EE0008FCF8ECF8DCF8CCF8BCF8ACF89CF88CF87CF86CF85CF84CF83CF82CF81CF80CF4A
:204F00007FCF7ECF7DCF7CCF7BCF7ACF79CF78CF77CF76CF75CF74CF73CF72CF71CF70CF29
:204F20006FCF6ECF6DCF6CCF6BCF6ACF69CF68CF67CF66CF65CF64CF63CF62CF61CF60CF09
:204F40005FCF5ECF5DCF5CCF5BCF5ACF59CF58CF57CF56CF55CF54CF53CF52CF51CF50CFE9
:204F60004FCF4ECF4DCF4CCF4BCF4ACF49CF48CF47CF46CF45CF44CF43CF42CF41CF40CFC9
:204F80003FCF3ECF3DCF3CCF3BCF3ACF39CF38CF37CF36CF35CF34CF33CF32CF31CF30CFA9
:204FA0002FCF2ECF2DCF2CCF2BCF2ACF29CF28CF27CF26CF25CF24CF23CF22CF21CF20CF89
:204FC0001FCF1ECF1DCF1CCF1BCF1ACF19CF18CF17CF16CF15CF14CF13CF12CF11CF10CF69
:204FE0000FCF0ECF0DCF0CCF0BCF0ACF09CF08CF07CF06CF05CF04CF03CF02CF01CF00CF49
:20500000FFCFFECFFDCFFCCFFBCFFACFF9CFF8CFF7CFF6CFF5CFF4CFF3CFF2CFF1CFF0CF28
:20502000EFCFEECFEDCFECCFEBCFEACFE9CFE8CFE7CFE6CFE5CFE4CFE3CFE2CFE1CFE0CF08
:20504000DFCFDECFDDCFDCCFDBCFDACFD9CFD8CFD7CFD6CFD5CFD4CFD3CFD2CFD1CFD0CFE8
:20506000CFCFCECFCDCFCCCFCBCFCACFC9CFC8CFC7CFC6CFC5CFC4CFC3CFC2CFC1CFC0CFC8
:20508000BFCFBECFBDCFBCCFBBCFBACFB9CFB8CFB7CFB6CFB5CFB4CFB3CFB2CFB1CFB0CFA8
:2050A000AFCFAECFADCFACCFABCFAACFA9CFA8CFA7CFA6CFA5CFA4CFA3CFA2CFA1CFA0CF88
:2050C0009FCF9ECF9DCF9CCF9BCF9ACF99CF98CF97CF96CF95CF94CF93CF92CF91CF90CF68
:2050E0008FCF8ECF8DCF8CCF8BCF8ACF89CF88CF87CF86CF85CF84CF83CF82CF81CF80CF48
:205100007FCF7ECF7DCF7CCF7BCF7ACF79CF78CF77CF76CF75CF74CF73CF72CF71CF70CF27
:205120006FCF6ECF6DCF6CCF6BCF6ACF69CF68CF67CF66CF65CF64CF63CF62CF61CF60CF07
:205140005FCF5ECF5DCF5CCF5BCF5ACF59CF58CF57CF56CF55CF54CF53CF52CF51CF50CFE7
:205160004FCF4ECF4DCF4CCF4BCF4ACF49CF48CF47CF46CF45CF44CF43CF42CF41CF40CFC7
:205180003FCF3ECF3DCF3CCF3BCF3ACF39CF38CF37CF36CF35CF34CF33CF32CF31CF30CFA7
:2051A0002FCF2ECF2DCF2CCF2BCF2ACF29CF28CF27CF26CF25CF24CF23CF22CF21CF20CF87
:2051C0001FCF1ECF1DCF1CCF1BCF1ACF19CF18CF17CF16CF15CF14CF13CF12CF11CF10CF67
:2051E0000FCF0ECF0DCF0CCF0BCF0ACF09CF08CF07CF06CF05CF04CF03CF02CF01CF00CF47
:20520000FFCFFECFFDCFFCCFFBCFFACFF9CFF8CFF7CFF6CFF5CFF4CFF3CFF2CFF1CFF0CF26
:20522000EFCFEECFEDCFECCFEBCFEACFE9CFE8CFE7CFE6CFE5CFE4CFE3CFE2CFE1CFE0CF06
:20524000DFCFDECFDDCFDCCFDBCFDACFD9CFD8CFD7CFD6CFD5CFD4CFD3CFD2CFD1CFD0CFE6
:20526000CFCFCECFCDCFCCCFCBCFCACFC9CFC8CFC7CFC6CFC5CFC4CFC3CFC2CFC1CFC0CFC6
:20528000BFCFBECFBDCFBCCFBBCFBACFB9CFB8CFB7CFB6CFB5CFB4CFB3CFB2CFB1CFB0CFA6
:2052A000AFCFAECFADCFACCFABCFAACFA9CFA8CFA7CFA6CFA5CFA4CFA3CFA2CFA1CFA0CF86
:2052C0009FCF9ECF9DCF9CCF9BCF9ACF99CF98CF97CF96CF95CF94CF93CF92CF91CF90CF66
:2052E0008FCF8ECF8DCF8CCF8BCF8ACF89CF88CF87CF86CF85CF84CF83CF82CF81CF80CF46
:205300007FCF7ECF7DCF7CCF7BCF7ACF79CF78CF77CF76CF75CF74CF73CF72CF71CF70CF25
:205320006FCF6ECF6DCF6CCF6BCF6ACF69CF68CF67CF66CF65CF64CF63CF62CF61CF60CF05
:205340005FCF5ECF5DCF5CCF5BCF5ACF59CF58CF57CF56CF55CF54CF53CF52CF51CF50CFE5
:205360004FCF4ECF4DCF4CCF4BCF4ACF49CF48CF47CF46CF45CF44CF43CF42CF41CF40CFC5
:205380003FCF3ECF3DCF3CCF3BCF3ACF39CF38CF37CF36CF35CF34CF33CF32CF31CF30CFA5
:2053A0002FCF2ECF2DCF2CCF2BCF2ACF29CF28CF27CF26CF25CF24CF23CF22CF21CF20CF85
:2053C0001FCF1ECF1DCF1CCF1BCF1ACF19CF18CF17CF16CF15CF14CF13CF12CF11CF10CF65
:2053E0000FCF0ECF0DCF0CCF0BCF0ACF09CF08CF07CF06CF05CF04CF03CF02CF01CF00CF45
:20540000FFCFFECFFDCFFCCFFBCFFACFF9CFF8CFF7CFF6CFF5CFF4CFF3CFF2CFF1CFF0CF24
:20542000EFCFEECFEDCFECCFEBCFEACFE9CFE8CFE7CFE6CFE5CFE4CFE3CFE2CFE1CFE0CF04
:20544000DFCFDECFDDCFDCCFDBCFDACFD9CFD8CFD7CFD6CFD5CFD4CFD3CFD2CFD1CFD0CFE4
:20546000CFCFCECFCDCFCCCFCBCFCACFC9CFC8CFC7CFC6CFC5CFC4CFC3CFC2CFC1CFC0CFC4
:20548000BFCFBECFBDCFBCCFBBCFBACFB9CFB8CFB7CFB6CFB5CFB4CFB3CFB2CFB1CFB0CFA4
:2054A000AFCFAECFADCFACCFABCFAACFA9CFA8CFA7CFA6CFA5CFA4CFA3CFA2CFA1CFA0CF84
:2054C0009FCF9ECF9DCF9CCF9BCF9ACF99CF98CF97CF96CF95CF94CF93CF92CF91CF90CF64
:2054E0008FCF8ECF8DCF8CCF8BCF8ACF89CF88CF87CF86CF85CF84CF83CF82CF81CF80CF44
:205500007FCF7ECF7DCF7CCF7BCF7ACF79CF78CF77CF76CF75CF74CF73CF72CF71CF70CF23
:205520006FCF6ECF6DCF6CCF6BCF6ACF69CF68CF67CF66CF65CF64CF63CF62CF61CF60CF03
:155540005FCF5ECF5DCF5CCF5BCF5ACF59CF58CF57CF56CF5562
:20AAAB00FFCFFECFFDCFFCCFFBCFFACFF9CFF8CFF7CFF6CFF5CFF4CFF3CFF2CFF1CFF0CF23
:20AACB00EFCFEECFEDCFECCFEBCFEACFE9CFE8CFE7CFE6CFE5CFE4CFE3CFE2CFE1CFE0CF03
:20AAEB00DFCFDECFDDCFDCCFDBCFDACFD9CFD8CFD7CFD6CFD5CFD4CFD3CFD2CFD1CFD0CFE3
:20AB0B00CFCFCECFCDCFCCCFCBCFCACFC9CFC8CFC7CFC6CFC5CFC4CFC3CFC2CFC1CFC0CFC2
:20AB2B00BFCFBECFBDCFBCCFBBCFBACFB9CFB8CFB7CFB6CFB5CFB4CFB3CFB2CFB1CFB0CFA2
:20AB4B00AFCFAECFADCFACCFABCFAACFA9CFA8CFA7CFA6CFA5CFA4CFA3CFA2CFA1CFA0CF82
:20AB6B009FCF9ECF9DCF9CCF9BCF9ACF99CF98CF97CF96CF95CF94CF93CF92CF91CF90CF62
:20AB8B008FCF8ECF8DCF8CCF8BCF8ACF89CF88CF87CF86CF85CF84CF83CF82CF81CF80CF42
:20ABAB007FCF7ECF7DCF7CCF7BCF7ACF79CF78CF77CF76CF75CF74CF73CF72CF71CF70CF22
:20ABCB006FCF6ECF6DCF6CCF6BCF6ACF69CF68CF67CF66CF65CF64CF63CF62CF61CF60CF02
:20ABEB005FCF5ECF5DCF5CCF5BCF5ACF59CF58CF57CF56CF55CF54CF53CF52CF51CF50CFE2
:20AC0B004FCF4ECF4DCF4CCF4BCF4ACF49CF48CF47CF46CF45CF44CF43CF42CF41CF40CFC1
:20AC2B003FCF3ECF3DCF3CCF3BCF3ACF39CF38CF37CF36CF35CF34CF33CF32CF31CF30CFA1
:20AC4B002FCF2ECF2DCF2CCF2BCF2ACF29CF28CF27CF26CF25CF24CF23CF22CF21CF20CF81
:20AC6B001FCF1ECF1DCF1CCF1BCF1ACF19CF18CF17CF16CF15CF14CF13CF12CF11CF10CF61
:20AC8B000FCF0ECF0DCF0CCF0BCF0ACF09CF08CF07CF06CF05CF04CF03CF02CF01CF00CF41
:20ACAB00FFCFFECFFDCFFCCFFBCFFACFF9CFF8CFF7CFF6CFF5CFF4CFF3CFF2CFF1CFF0CF21
:20ACCB00EFCFEECFEDCFECCFEBCFEACFE9CFE8CFE7CFE6CFE5CFE4CFE3CFE2CFE1CFE0CF01
:20ACEB00DFCFDECFDDCFDCCFDBCFDACFD9CFD8CFD7CFD6CFD5CFD4CFD3CFD2CFD1CFD0CFE1
:20AD0B00CFCFCECFCDCFCCCFCBCFCACFC9CFC8CFC7CFC6CFC5CFC4CFC3CFC2CFC1CFC0CFC0
:20AD2B00BFCFBECFBDCFBCCFBBCFBACFB9CFB8CFB7CFB6CFB5CFB4CFB3CFB2CFB1CFB0CFA0
:20AD4B00AFCFAECFADCFACCFABCFAACFA9CFA8CFA7CFA6CFA5CFA4CFA3CFA2CFA1CFA0CF80
:20AD6B009FCF9ECF9DCF9CCF9BCF9ACF99CF98CF97CF96CF95CF94CF93CF92CF91CF90CF60
:20AD8B008FCF8ECF8DCF8CCF8BCF8ACF89CF88CF87CF86CF85CF84CF83CF82CF81CF80CF40
:20ADAB007FCF7ECF7DCF7CCF7BCF7ACF79CF78CF77CF76CF75CF74CF73CF72CF71CF70CF20
:20ADCB006FCF6ECF6DCF6CCF6BCF6ACF69CF68CF67CF66CF65CF64CF63CF62CF61CF60CF00
:20ADEB005FCF5ECF5DCF5CCF5BCF5ACF59CF58CF57CF56CF55CF54CF53CF52CF51CF50CFE0
:20AE0B004FCF4ECF4DCF4CCF4BCF4ACF49CF48CF47CF46CF45CF44CF43CF42CF41CF40CFBF
:20AE2B003FCF3ECF3DCF3CCF3BCF3ACF39CF38CF37CF36CF35CF34CF33CF32CF31CF30CF9F
:20AE4B002FCF2ECF2DCF2CCF2BCF2ACF29CF28CF27CF26CF25CF24CF23CF22CF21CF20CF7F
:20AE6B001FCF1ECF1DCF1CCF1BCF1ACF19CF18CF17CF16CF15CF14CF13CF12CF11CF10CF5F
:20AE8B000FCF0ECF0DCF0CCF0BCF0ACF09CF08CF07CF06CF05CF04CF03CF02CF01CF00CF3F
:20AEAB00FFCFFECFFDCFFCCFFBCFFACFF9CFF8CFF7CFF6CFF5CFF4CFF3CFF2CFF1CFF0CF1F
:20AECB00EFCFEECFEDCFECCFEBCFEACFE9CFE8CFE7CFE6CFE5CFE4CFE3CFE2CFE1CFE0CFFF
:15AEEB00DFCFDECFDDCFDCCFDBCFDACFD9CFD8CFD7CFD6CFD5DE
:20AF0000CFD4CFD3CFD2CFD1CFD0CFCFCFCECFCDCFCCCFCBCFCACFC9CFC8CFC7CFC6CFC579
:20AF2000CFC4CFC3CFC2CFC1CFC0CFBFCFBECFBDCFBCCFBBCFBACFB9CFB8CFB7CFB6CFB559
:20AF4000CFB4CFB3CFB2CFB1CFB0CFAFCFAECFADCFACCFABCFAACFA9CFA8CFA7CFA6CFA539
:20AF6000CFA4CFA3CFA2CFA1CFA0CF9FCF9ECF9DCF9CCF9BCF9ACF99CF98CF97CF96CF9519
:20AF8000CF94CF93CF92CF91CF90CF8FCF8ECF8DCF8CCF8BCF8ACF89CF88CF87CF86CF85F9
:20AFA000CF84CF83CF82CF81CF80CF7FCF7ECF7DCF7CCF7BCF7ACF79CF78CF77CF76CF75D9
:20AFC000CF74CF73CF72CF71CF70CF6FCF6ECF6DCF6CCF6BCF6ACF69CF68CF67CF66CF65B9
:20AFE000CF64CF63CF62CF61CF60CF5FCF5ECF5DCF5CCF5BCF5ACF59CF58CF57CF56CF5599
:20B00000CF54CF53CF52CF51CF50CF4FCF4ECF4DCF4CCF4BCF4ACF49CF48CF47CF46CF4578
:20B02000CF44CF43CF42CF41CF40CF3FCF3ECF3DCF3CCF3BCF3ACF39CF38CF37CF36CF3558
:20B04000CF34CF33CF32CF31CF30CF2FCF2ECF2DCF2CCF2BCF2ACF29CF28CF27CF26CF2538
:20B06000CF24CF23CF22CF21CF20CF1FCF1ECF1DCF1CCF1BCF1ACF19CF18CF17CF16CF1518
:20B08000CF14CF13CF12CF11CF10CF0FCF0ECF0DCF0CCF0BCF0ACF09CF08CF07CF06CF05F8
:20B0A000CF04CF03CF02CF01CF00CFFFCFFECFFDCFFCCFFBCFFACFF9CFF8CFF7CFF6CFF5D8
:20B0C000CFF4CFF3CFF2CFF1CFF0CFEFCFEECFEDCFECCFEBCFEACFE9CFE8CFE7CFE6CFE5B8
:20B0E000CFE4CFE3CFE2CFE1CFE0CFDFCFDECFDDCFDCCFDBCFDACFD9CFD8CFD7CFD6CFD598
:20B10000CFD4CFD3CFD2CFD1CFD0CFCFCFCECFCDCFCCCFCBCFCACFC9CFC8CFC7CFC6CFC577
:20B12000CFC4CFC3CFC2CFC1CFC0CFBFCFBECFBDCFBCCFBBCFBACFB9CFB8CFB7CFB6CFB557
:20B14000CFB4CFB3CFB2CFB1CFB0CFAFCFAECFADCFACCFABCFAACFA9CFA8CFA7CFA6CFA537
:20B16000CFA4CFA3CFA2CFA1CFA0CF9FCF9ECF9DCF9CCF9BCF9ACF99CF98CF97CF96CF9517
:20B18000CF94CF93CF92CF91CF90CF8FCF8ECF8DCF8CCF8BCF8ACF89CF88CF87CF86CF85F7
:20B1A000CF84CF83CF82CF81CF80CF7FCF7ECF7DCF7CCF7BCF7ACF79CF78CF77CF76CF75D7
:20B1C000CF74CF73CF72CF71CF70CF6FCF6ECF6DCF6CCF6BCF6ACF69CF68CF67CF66CF65B7
:20B1E000CF64CF63CF62CF61CF60CF5FCF5ECF5DCF5CCF5BCF5ACF59CF58CF57CF56CF5597
:20B20000CF54CF53CF52CF51CF50CF4FCF4ECF4DCF4CCF4BCF4ACF49CF48CF47CF46CF4576
:20B22000CF44CF43CF42CF41CF40CF3FCF3ECF3DCF3CCF3BCF3ACF39CF38CF37CF36CF3556
:20B24000CF34CF33CF32CF31CF30CF2FCF2ECF2DCF2CCF2BCF2ACF29CF28CF27CF26CF2536
:20B26000CF24CF23CF22CF21CF20CF1FCF1ECF1DCF1CCF1BCF1ACF19CF18CF17CF16CF1516
:20B28000CF14CF13CF12CF11CF10CF0FCF0ECF0DCF0CCF0BCF0ACF09CF08CF07CF06CF05F6
:20B2A000CF04CF03CF02CF01CF00CFFFCFFECFFDCFFCCFFBCFFACFF9CFF8CFF7CFF6CFF5D6
:20B2C000CFF4CFF3CFF2CFF1CFF0CFEFCFEECFEDCFECCFEBCFEACFE9CFE8CFE7CFE6CFE5B6
:20B2E000CFE4CFE3CFE2CFE1CFE0CFDFCFDECFDDCFDCCFDBCFDACFD9CFD8CFD7CFD6CFD596
:20B30000CFD4CFD3CFD2CFD1CFD0CFCFCFCECFCDCFCCCFCBCFCACFC9CFC8CFC7CFC6CFC575
:20B32000CFC4CFC3CFC2CFC1CFC0CFBFCFBECFBDCFBCCFBBCFBACFB9CFB8CFB7CFB6CFB555
:20B34000CFB4CFB3CFB2CFB1CFB0CFAFCFAECFADCFACCFABCFAACFA9CFA8CFA7CFA6CFA535
:20B36000CFA4CFA3CFA2CFA1CFA0CF9FCF9ECF9DCF9CCF9BCF9ACF99CF98CF97CF96CF9515
:20B38000CF94CF93CF92CF91CF90CF8FCF8ECF8DCF8CCF8BCF8ACF89CF88CF87CF86CF85F5
:20B3A000CF84CF83CF82CF81CF80CF7FCF7ECF7DCF7CCF7BCF7ACF79CF78CF77CF76CF75D5
:20B3C000CF74CF73CF72CF71CF70CF6FCF6ECF6DCF6CCF6BCF6ACF69CF68CF67CF66CF65B5
:20B3E000CF64CF63CF62CF61CF60CF5FCF5ECF5DCF5CCF5BCF5ACF59CF58CF57CF56CF5595
:20B40000CF54CF53CF52CF51CF50CF4FCF4ECF4DCF4CCF4BCF4ACF49CF48CF47CF46CF4574
:20B42000CF44CF43CF42CF41CF40CF3FCF3ECF3DCF3CCF3BCF3ACF39CF38CF37CF36CF3554
:20B44000CF34CF33CF32CF31CF30CF2FCF2ECF2DCF2CCF2BCF2ACF29CF28CF27CF26CF2534
:20B46000CF24CF23CF22CF21CF20CF1FCF1ECF1DCF1CCF1BCF1ACF19CF18CF17CF16CF1514
:20B48000CF14CF13CF12CF11CF10CF0FCF0ECF0DCF0CCF0BCF0ACF09CF08CF07CF06CF05F4
:20B4A000CF04CF03CF02CF01CF00CFFFCFFECFFDCFFCCFFBCFFACFF9CFF8CFF7CFF6CFF5D4
:20B4C000CFF4CFF3CFF2CFF1CFF0CFEFCFEECFEDCFECCFEBCFEACFE9CFE8CFE7CFE6CFE5B4
:20B4E000CFE4CFE3CFE2CFE1CFE0CFDFCFDECFDDCFDCCFDBCFDACFD9CFD8CFD7CFD6CFD594
:20B50000CFD4CFD3CFD2CFD1CFD0CFCFCFCECFCDCFCCCFCBCFCACFC9CFC8CFC7CFC6CFC573
:20B52000CFC4CFC3CFC2CFC1CFC0CFBFCFBECFBDCFBCCFBBCFBACFB9CFB8CFB7CFB6CFB553
:20B54000CFB4CFB3CFB2CFB1CFB0CFAFCFAECFADCFACCFABCFAACFA9CFA8CFA7CFA6CFA533
:20B56000CFA4CFA3CFA2CFA1CFA0CF9FCF9ECF9DCF9CCF9BCF9ACF99CF98CF97CF96CF9513
:20B58000CF94CF93CF92CF91CF90CF8FCF8ECF8DCF8CCF8BCF8ACF89CF88CF87CF86CF85F3
:20B5A000CF84CF83CF82CF81CF80CF7FCF7ECF7DCF7CCF7BCF7ACF79CF78CF77CF76CF75D3
:20B5C000CF74CF73CF72CF71CF70CF6FCF6ECF6DCF6CCF6BCF6ACF69CF68CF67CF66CF65B3
:20B5E000CF64CF63CF62CF61CF60CF5FCF5ECF5DCF5CCF5BCF5ACF59CF58CF57CF56CF5593
:20B60000CF54CF53CF52CF51CF50CF4FCF4ECF4DCF4CCF4BCF4ACF49CF48CF47CF46CF4572
:20B62000CF44CF43CF42CF41CF40CF3FCF3ECF3DCF3CCF3BCF3ACF39CF38CF37CF36CF3552
:20B64000CF34CF33CF32CF31CF30CF2FCF2ECF2DCF2CCF2BCF2ACF29CF28CF27CF26CF2532
:20B66000CF24CF23CF22CF21CF20CF1FCF1ECF1DCF1CCF1BCF1ACF19CF18CF17CF16CF1512
:20B68000CF14CF13CF12CF11CF10CF0FCF0ECF0DCF0CCF0BCF0ACF09CF08CF07CF06CF05F2
:20B6A000CF04CF03CF02CF01CF00CFFFCFFECFFDCFFCCFFBCFFACFF9CFF8CFF7CFF6CFF5D2
:20B6C000CFF4CFF3CFF2CFF1CFF0CFEFCFEECFEDCFECCFEBCFEACFE9CFE8CFE7CFE6CFE5B2
:20B6E000CFE4CFE3CFE2CFE1CFE0CFDFCFDECFDDCFDCCFDBCFDACFD9CFD8CFD7CFD6CFD592
:20B70000CFD4CFD3CFD2CFD1CFD0CFCFCFCECFCDCFCCCFCBCFCACFC9CFC8CFC7CFC6CFC571
:20B72000CFC4CFC3CFC2CFC1CFC0CFBFCFBECFBDCFBCCFBBCFBACFB9CFB8CFB7CFB6CFB551
:20B74000CFB4CFB3CFB2CFB1CFB0CFAFCFAECFADCFACCFABCFAACFA9CFA8CFA7CFA6CFA531
:20B76000CFA4CFA3CFA2CFA1CFA0CF9FCF9ECF9DCF9CCF9BCF9ACF99CF98CF97CF96CF9511
:20B78000CF94CF93CF92CF91CF90CF8FCF8ECF8DCF8CCF8BCF8ACF89CF88CF87CF86CF85F1
:20B7A000CF84CF83CF82CF81CF80CF7FCF7ECF7DCF7CCF7BCF7ACF79CF78CF77CF76CF75D1
:20B7C000CF74CF73CF72CF71CF70CF6FCF6ECF6DCF6CCF6BCF6ACF69CF68CF67CF66CF65B1
:20B7E000CF64CF63CF62CF61CF60CF5FCF5ECF5DCF5CCF5BCF5ACF59CF58CF57CF56CF5591
:20B80000CF54CF53CF52CF51CF50CF4FCF4ECF4DCF4CCF4BCF4ACF49CF48CF47CF46CF4570
:20B82000CF44CF43CF42CF41CF40CF3FCF3ECF3DCF3CCF3BCF3ACF39CF38CF37CF36CF3550
:20B84000CF34CF33CF32CF31CF30CF2FCF2ECF2DCF2CCF2BCF2ACF29CF28CF27CF26CF2530
:20B86000CF24CF23CF22CF21CF20CF1FCF1ECF1DCF1CCF1BCF1ACF19CF18CF17CF16CF1510
:20B88000CF14CF13CF12CF11CF10CF0FCF0ECF0DCF0CCF0BCF0ACF09CF08CF07CF06CF05F0
:20B8A000CF04CF03CF02CF01CF00CFFFCFFECFFDCFFCCFFBCFFACFF9CFF8CFF7CFF6CFF5D0
:20B8C000CFF4CFF3CFF2CFF1CFF0CFEFCFEECFEDCFECCFEBCFEACFE9CFE8CFE7CFE6CFE5B0
:20B8E000CFE4CFE3CFE2CFE1CFE0CFDFCFDECFDDCFDCCFDBCFDACFD9CFD8CFD7CFD6CFD590
:20B90000CFD4CFD3CFD2CFD1CFD0CFCFCFCECFCDCFCCCFCBCFCACFC9CFC8CFC7CFC6CFC56F
:20B92000CFC4CFC3CFC2CFC1CFC0CFBFCFBECFBDCFBCCFBBCFBACFB9CFB8CFB7CFB6CFB54F
:20B94000CFB4CFB3CFB2CFB1CFB0CFAFCFAECFADCFACCFABCFAACFA9CFA8CFA7CFA6CFA52F
:20B96000CFA4CFA3CFA2CFA1CFA0CF9FCF9ECF9DCF9CCF9BCF9ACF99CF98CF97CF96CF950F
:20B98000CF94CF93CF92CF91CF90CF8FCF8ECF8DCF8CCF8BCF8ACF89CF88CF87CF86CF85EF
:20B9A000CF84CF83CF82CF81CF80CF7FCF7ECF7DCF7CCF7BCF7ACF79CF78CF77CF76CF75CF
:20B9C000CF74CF73CF72CF71CF70CF6FCF6ECF6DCF6CCF6BCF6ACF69CF68CF67CF66CF65AF
:20B9E000CF64CF63CF62CF61CF60CF5FCF5ECF5DCF5CCF5BCF5ACF59CF58CF57CF56CF558F
:20BA0000CF54CF53CF52CF51CF50CF4FCF4ECF4DCF4CCF4BCF4ACF49CF48CF47CF46CF456E
:20BA2000CF44CF43CF42CF41CF40CF3FCF3ECF3DCF3CCF3BCF3ACF39CF38CF37CF36CF354E
:20BA4000CF34CF33CF32CF31CF30CF2FCF2ECF2DCF2CCF2BCF2ACF29CF28CF27CF26CF252E
:20BA6000CF24CF23CF22CF21CF20CF1FCF1ECF1DCF1CCF1BCF1ACF19CF18CF17CF16CF150E
:20BA8000CF14CF13CF12CF11CF10CF0FCF0ECF0DCF0CCF0BCF0ACF09CF08CF07CF06CF05EE
:20BAA000CF04CF03CF02CF01CF00CFFFCFFECFFDCFFCCFFBCFFACFF9CFF8CFF7CFF6CFF5CE
:20BAC000CFF4CFF3CFF2CFF1CFF0CFEFCFEECFEDCFECCFEBCFEACFE9CFE8CFE7CFE6CFE5AE
:20BAE000CFE4CFE3CFE2CFE1CFE0CFDFCFDECFDDCFDCCFDBCFDACFD9CFD8CFD7CFD6CFD58E
:20BB0000CFD4CFD3CFD2CFD1CFD0CFCFCFCECFCDCFCCCFCBCFCACFC9CFC8CFC7CFC6CFC56D
:20BB2000CFC4CFC3CFC2CFC1CFC0CFBFCFBECFBDCFBCCFBBCFBACFB9CFB8CFB7CFB6CFB54D
:20BB4000CFB4CFB3CFB2CFB1CFB0CFAFCFAECFADCFACCFABCFAACFA9CFA8CFA7CFA6CFA52D
:20BB6000CFA4CFA3CFA2CFA1CFA0CF9FCF9ECF9DCF9CCF9BCF9ACF99CF98CF97CF96CF950D
:20BB8000CF94CF93CF92CF91CF90CF8FCF8ECF8DCF8CCF8BCF8ACF89CF88CF87CF86CF85ED
:20BBA000CF84CF83CF82CF81CF80CF7FCF7ECF7DCF7CCF7BCF7ACF79CF78CF77CF76CF75CD
:20BBC000CF74CF73CF72CF71CF70CF6FCF6ECF6DCF6CCF6BCF6ACF69CF68CF67CF66CF65AD
:20BBE000CF64CF63CF62CF61CF60CF5FCF5ECF5DCF5CCF5BCF5ACF59CF58CF57CF56CF558D
:20BC0000CF54CF53CF52CF51CF50CF4FCF4ECF4DCF4CCF4BCF4ACF49CF48CF47CF46CF456C
:20BC2000CF44CF43CF42CF41CF40CF3FCF3ECF3DCF3CCF3BCF3ACF39CF38CF37CF36CF354C
:20BC4000CF34CF33CF32CF31CF30CF2FCF2ECF2DCF2CCF2BCF2ACF29CF28CF27CF26CF252C
:20BC6000CF24CF23CF22CF21CF20CF1FCF1ECF1DCF1CCF1BCF1ACF19CF18CF17CF16CF150C
:20BC8000CF14CF13CF12CF11CF10CF0FCF0ECF0DCF0CCF0BCF0ACF09CF08CF07CF06CF05EC
:20BCA000CF04CF03CF02CF01CF00CFFFCFFECFFDCFFCCFFBCFFACFF9CFF8CFF7CFF6CFF5CC
:20BCC000CFF4CFF3CFF2CFF1CFF0CFEFCFEECFEDCFECCFEBCFEACFE9CFE8CFE7CFE6CFE5AC
:20BCE000CFE4CFE3CFE2CFE1CFE0CFDFCFDECFDDCFDCCFDBCFDACFD9CFD8CFD7CFD6CFD58C
:20BD0000CFD4CFD3CFD2CFD1CFD0CFCFCFCECFCDCFCCCFCBCFCACFC9CFC8CFC7CFC6CFC56B
:20BD2000CFC4CFC3CFC2CFC1CFC0CFBFCFBECFBDCFBCCFBBCFBACFB9CFB8CFB7CFB6CFB54B
:20BD4000CFB4CFB3CFB2CFB1CFB0CFAFCFAECFADCFACCFABCFAACFA9CFA8CFA7CFA6CFA52B
:20BD6000CFA4CFA3CFA2CFA1CFA0CF9FCF9ECF9DCF9CCF9BCF9ACF99CF98CF97CF96CF950B
:20BD8000CF94CF93CF92CF91CF90CF8FCF8ECF8DCF8CCF8BCF8ACF89CF88CF87CF86CF85EB
:20BDA000CF84CF83CF82CF81CF80CF7FCF7ECF7DCF7CCF7BCF7ACF79CF78CF77CF76CF75CB
:20BDC000CF74CF73CF72CF71CF70CF6FCF6ECF6DCF6CCF6BCF6ACF69CF68CF67CF66CF65AB
:20BDE000CF64CF63CF62CF61CF60CF5FCF5ECF5DCF5CCF5BCF5ACF59CF58CF57CF56CF558B
:20BE0000CF54CF53CF52CF51CF50CF4FCF4ECF4DCF4CCF4BCF4ACF49CF48CF47CF46CF456A
:20BE2000CF44CF43CF42CF41CF40CF3FCF3ECF3DCF3CCF3BCF3ACF39CF38CF37CF36CF354A
:20BE4000CF34CF33CF32CF31CF30CF2FCF2ECF2DCF2CCF2BCF2ACF29CF28CF27CF26CF252A
:20BE6000CF24CF23CF22CF21CF20CF1FCF1ECF1DCF1CCF1BCF1ACF19CF18CF17CF16CF150A
:20BE8000CF14CF13CF12CF11CF10CF0FCF0ECF0DCF0CCF0BCF0ACF09CF08CF07CF06CF05EA
:20BEA000CF04CF03CF02CF01CF00CFFFCFFECFFDCFFCCFFBCFFACFF9CFF8CFF7CFF6CFF5CA
:20BEC000CFF4CFF3CFF2CFF1CFF0CFEFCFEECFEDCFECCFEBCFEACFE9CFE8CFE7CFE6CFE5AA
:20BEE000CFE4CFE3CFE2CFE1CFE0CFDFCFDECFDDCFDCCFDBCFDACFD9CFD8CFD7CFD6CFD58A
:20BF0000CFD4CFD3CFD2CFD1CFD0CFCFCFCECFCDCFCCCFCBCFCACFC9CFC8CFC7CFC6CFC569
:20BF2000CFC4CFC3CFC2CFC1CFC0CFBFCFBECFBDCFBCCFBBCFBACFB9CFB8CFB7CFB6CFB549
:20BF4000CFB4CFB3CFB2CFB1CFB0CFAFCFAECFADCFACCFABCFAACFA9CFA8CFA7CFA6CFA529
:20BF6000CFA4CFA3CFA2CFA1CFA0CF9FCF9ECF9DCF9CCF9BCF9ACF99CF98CF97CF96CF9509
:20BF8000CF94CF93CF92CF91CF90CF8FCF8ECF8DCF8CCF8BCF8ACF89CF88CF87CF86CF85E9
:20BFA000CF84CF83CF82CF81CF80CF7FCF7ECF7DCF7CCF7BCF7ACF79CF78CF77CF76CF75C9
:20BFC000CF74CF73CF72CF71CF70CF6FCF6ECF6DCF6CCF6BCF6ACF69CF68CF67CF66CF65A9
:1EBFE000CF64CF63CF62CF61CF60CF5FCF5ECF5DCF5CCF5BCF5ACF59CF58CF57CF56AF
:01BFFF00CF72
:00000001FF
