:020000023000CC
:10FE0000112424B614BE80E081D021FE49C18EE0C9
:10FE10007DD0E0ECF0E0B0E1B483B2E0B083B8E1D3
:10FE2000B18313E05FD0C82F823599F475D0E0E03C
:10FE3000FEEF1BBF309719F48BB781508BBFFA953B
:10FE4000A89583E091D03097A9F78BB78111F2CFB5
:10FE50003FC08D7FF1F453D0D82FA0E0B2E042D064
:10FE60008D93DA13FCCF58D0C1110FC0A0E0B2E0DF
:10FE7000F999FECF1FBAF2BDE1BD8D9180BDFA9A0E
:10FE8000F99A3196DA13F4CF23C0A0E0B2E04FD054
:10FE90001FC0C33041F433D0C82F3ED087911BD050
:10FEA000C150E1F715C0C13071F429D0C82F34D04A
:10FEB000F999FECFF2BDE1BDF89A80B50CD031962C
:10FEC000C150B1F705C0C13511F488E01FD024D06E
:10FED0008FE801D0A7CF9091C00095FFFCCF809311
:10FEE000C60008952F9A279A8091C00087FFFCCF03
:10FEF00084FD15C0A8958091C6002F980895F2DF63
:10FF0000E82FF0DFF82FEEDF8BBFECCF98E1909376
:10FF10006000809360000895E5DF803219F088E08A
:10FF2000F5DFFFCF80EAD7CF6BBFFA01DC016A2F84
:10FF30009F01FE3F9BB783E09807D8F483E014D07D
:10FF4000903039F4309629F48FEF8D938EEC8C93AA
:10FF5000119781E00D901D9007D03296A613FACF2D
:10FF6000F90185E001D081E187BFE89507B600FC83
:06FF7000FDCF11240895ED
:06FFFA00022895CF673FCD
:040000033000FE00CB
:00000001FF
